:020000041102E7
:1000000003B40148019001BDADAE000003B4014846
:10001000019001BD456B010003B40148019001BD91
:100020000189000003B40148019001BDC53F0000F3
:1000300003B40148019001BDE94C010003B401483B
:10004000019001BDC95C010003B40148019001BDEC
:10005000CD4C010003B40148019001BD618900004D
:1000600003B40148019001BD154D010003B40148DE
:10007000019001BDF54E010003B40148019001BD9E
:10008000434D010003B40148019001BD2526000045
:1000900003B40148019001BD8B52010003B4014833
:1000A000019001BDB352010003B40148019001BDAC
:1000B0000D52010003B40148019001BDC94A01007D
:1000C00003B40148019001BD691F000003B4014859
:1000D000019001BD5D17000003B40148019001BD0E
:1000E0003D4B010003B40148019001BD595201008C
:1000F00003B40148019001BD5125000003B401483B
:10010000019001BD014C010003B40148019001BD03
:10011000594F010003B40148019001BD1D4B01007E
:1001200003B40148019001BD8D12000003B40148E1
:10013000019001BD4D1F000003B40148019001BDB5
:100140005522000003B40148019001BDDD520100B9
:1001500003B40148019001BD1D4D010003B40148E5
:10016000019001BD810E000003B40148019001BD62
:10017000017F000003B40148019001BDE1170000B8
:1001800003B40148019001BD7918000003B401488F
:10019000019001BDD949010003B40148019001BD9E
:1001A000E928000003B40148019001BD5549010050
:1001B00003B40148019001BD4551010003B4014859
:1001C000019001BDC926000003B40148019001BDA2
:1001D0001DBC000003B40148019001BD6DBC0000CE
:1001E00003B40148019001BDC946FF1F03B4014893
:1001F000019001BD6934FF1F03B40148019001BDA6
:10020000C51D000003B40148019001BDA946FF1FB0
:1002100003B40148019001BD7147FF1F03B40148B9
:10022000019001BDC52CFF1F03B40148019001BD21
:100230005D35FF1F03B40148019001BDC145FF1F9B
:1002400003B40148019001BD090E000003B4014848
:10025000019001BD810E000003B40148019001BD71
:10026000750F000003B40148019001BD7919FF1F0B
:1002700003B40148019001BD5D45FF1F03B401486F
:10028000019001BD313CFF1F03B40148019001BD45
:10029000F94C010003B40148019001BDC5210000E3
:1002A00003B40148019001BD291C000003B40148BA
:1002B000019001BD851F000003B40148019001BDFC
:1002C000A946010003B40148019001BD1147010096
:1002D00003B40148019001BDB30E000003B401480E
:1002E000019001BDB942FF1F03B40148019001BD57
:1002F0003945FF1F03B40148019001BDE93CFF1FD0
:1003000003B40148019001BD993DFF1F03B40148AA
:10031000019001BDBF23FF1F03B40148019001BD3F
:100320009923FF1F03B40148019001BD212400005F
:1003300003B40148019001BD4550FF1F03B40148BB
:10034000019001BDD134FF1F03B40148019001BDEC
:100350000D0F000003B40148019001BD4D19FF1FAE
:1003600003B40148019001BD9D18FF1F03B401486B
:10037000019001BD350E000003B40148019001BD9C
:100380009533FF1F03B40148019001BDC118FF1F41
:1003900003B40148019001BDAF18FF1F03B4014829
:1003A000019001BDE548000003B40148019001BD82
:1003B0002951010003B40148019001BDD91B00007F
:1003C00003B40148019001BD9124FF1F03B401480B
:1003D000019001BDB924FF1F03B40148019001BD84
:1003E00051470100F8B5D349D14A002004464A607C
:1003F0008300401CD450FF28FADD4868CE4A0146ED
:1004000080318A606E22C262CC4A1278002A01D002
:100410007F22C2620A220265C94A13788363C94BEC
:10042000C36115781023022D08D01578012D05D051
:100430001578032D02D01578042D00D10362C24D2A
:1004400045611925AD0185613725CD603627282600
:10045000C7630825466405644F6032270F603B2759
:10046000CF634127CF6439274031E0C132274F6045
:1004700002274F6142270831E0C11E274F60CE603E
:100480008D6005264E6142260E615A2660390E6146
:100490004D613C258D61AF25ED000560AB4D0563D9
:1004A0001578022D09D01578012D08D01578032D67
:1004B00007D01578042D06D007E0152504E0436029
:1004C00003E00E2500E00C254560FF252D358560F5
:1004D000C560FF25F53505619D4D85647D25ED00E1
:1004E0009C4ECD67C66445629B4D85627325C5658C
:1004F000062545658565C51D0826F93502272E6048
:1005000047664B27FF0087660927C766934F076733
:100510004667BE108467C667914F8E4E3E60167860
:10052000022E09D01678012E0AD01678032E0BD091
:100530001278042A0CD00EE01A22CA61212205E0AA
:100540001422CA61182201E01322CB610A6202E080
:100550000E220B62CA617E4A8A627D22D2008A67BD
:1005600064224A620522CA6202220A63C8228C639C
:100570004A63382169607B4929647B49A9614B2121
:10058000C900E9617349FF30643929627D2109019D
:100590006962EC661E212C67A9667049A965E96548
:1005A00089102966696469677049A9677049714A49
:1005B0008130E967026082604160FF21F531C160EE
:1005C00001616E486C495A4A81606D49803A1161F7
:1005D0006A496C4A80318A626B4ACA626B4A82619C
:1005E0006B4AC2626B4A02636B4A64484038C2631A
:1005F0006A4ACA616A49816360496A4840318861D0
:100600006A49694888605D48694A80384260694A39
:100610004263694A0A626949816058496848C03939
:10062000C860FFF7EDFC0120FFF7F0FCF8BDF3B563
:100630000746644881B0C169634A1140FF310931FE
:10064000C161002613E000252C461120FFF7E4FCD1
:100650005C48406A8007800F610088402843641C22
:10066000E4B20546102CF0D301C7761CF6B202980E
:100670008642E8D3FEBD10B52E4C607800280AD122
:1006800004215248FFF7D3FF504804211030FFF7F0
:10069000CEFF0120607010BDF0B500248BB00D4678
:1006A0000646102902D901200BB0F0BDFFF7E3FF89
:1006B000464900200A5C401C1419C0B21028F9D326
:1006C000002C03D0102D03D90B20EDE70E20EBE713
:1006D0003F483E4C0023006802A91034E25CC75C2E
:1006E0007A40CA545B1CDBB2102BF7D306AA3748FA
:1006F000FFF798FC102D00D910252A4606A9304690
:10070000FFF796FCFFF79AFC216840182060FFF77E
:1007100095FC616840186060FFF790FCA168401884
:10072000A060FFF78BFCE1684018E0600020BBE7A9
:100730000004FF1F8471FF1F28DAFF1F246DFF1FB5
:100740004A0AFF1F3A07000080C3C9019A0200004D
:1007500050C30000280A00006A180000204E000064
:10076000F009FF1F0040001168100000DC050000C8
:1007700040420F0010270000D14BFF1F0001FF1F58
:100780007928FF1F2D51FF1F0554FF1FE124FF1F74
:100790007526FF1FFD24FF1F4138FF1F1D6AFF1F25
:1007A0004168FF1F1924FF1F312CFF1F0002FF1F8C
:1007B0004948FF1F254AFF1F6949FF1F0548FF1FC2
:1007C000612CFF1F40F0004000FEFEFF64B0FF1FE1
:1007D0008872FF1F0A7802708A7842704A88120A6B
:1007E00082700979C170042070470A780270098804
:1007F000090A41700220704710B500220EE09300F4
:100800005B189C7804705C88521C240A44701C7924
:1008100084709B88D2B21B0AC370001D0B78934270
:10082000EDD81806800D10BDF8B50D46064649787E
:10083000012031700024761C16E06978012917D058
:100840001221614349198A7832704A88871C120A3A
:100850007270B61C10223046091DFFF7E9FB1037F5
:10086000B8B21036641CE4B22978A142E5D8F8BDCC
:10087000A10049198A7832704A88871C120A72705E
:10088000B61C02223046091DFFF7D2FBBF1CB8B2CE
:10089000B61CE7E710B50C46097801702188090AF3
:1008A00041706288211D801CFFF7C2FB6088801C9C
:1008B00080B210BD10B50C46097801702188090A74
:1008C0004170A17881706188090AC170A288A11D58
:1008D000001DFFF7ADFBA088001D80B210BD10B554
:1008E0000C460A88891CFFF7A3FB208810BD10B5B1
:1008F0000B788A7802705343DCB22246401C091DF3
:10090000FFF796FB601C10BD10B50B788A7802705B
:100910005343DCB22246401C091DFFF789FB601CD3
:1009200010BD10B50C460A88891CFFF781FB208892
:1009300010BD10B50C460A88891CFFF779FB20888A
:1009400010BD7FB515460446022901D0102903D1F8
:10095000022B04D0102B02D0002004B070BD9942AD
:1009600002D10A46294607E01029694607D000F05F
:100970000DF8102269462846FFF766FBEDE71046A2
:1009800000F004F8102269462046F5E770B50C46E1
:1009900005000CD0002C0AD0102206492046FFF793
:1009A00047FB2878207368786073012070BD0020B1
:1009B00070BD000054AE021110B50B460122024971
:1009C00002F0BEFA10BD0000D507021170B5064650
:1009D00008880C46172812D30B46032209493046D3
:1009E00002F0AEFA050008D107492088098888423C
:1009F00000D20146304600F0C1F9284670BD022001
:100A000070BD0000EB070211B871FF1F10B5002385
:100A10001922194602F094FA10BD000010B50A78A8
:100A2000002A05D00B460722024902F089FA10BDC0
:100A3000022010BDF907021110B54A78012A01D031
:100A4000022A08D10A78002A05D00B46052203495C
:100A500002F076FA10BD022010BD00002908021134
:100A600001494000085A7047B671FF1F10B50B4688
:100A70001D22024902F064FA10BD0000950802111F
:100A800010B50B461B22024902F05AFA10BD0000B5
:100A9000950802110149172008807047B671FF1FA1
:100AA0000098022B01D0042070471178527812026E
:100AB00089180180002070470098012B01D0042084
:100AC0007047117801700020704770B5049C1E4675
:100AD0001546062B1BD36978287809024018208018
:100AE000E978A87809024018608002222271291D45
:100AF000601DFFF79DFAB61FB2B22281F02A06D818
:100B00002046A91D0A30FFF793FA002070BD04208B
:100B100070BD0098042B01D00420704753781178E1
:100B20001B02C91801809178D2781202891841807D
:100B300000207047F8B584890D460646002C26D063
:100B4000B2681778380620D50C2C20D90C3CA4B2FA
:100B50001019009001217088234601F057FE0028EB
:100B600011D0022028707806C00F6870B806800E79
:100B7000A870641E2004000CA88001D0B068401C3E
:100B8000A8600020F8BD0120ECE70020EAE7012082
:100B9000F8BD10B502981146042B14D34C780A788E
:100BA000240212190280CC788A7824021219428019
:100BB0001B1F9AB28280F22A05D8801D091DFFF7FB
:100BC00037FA002010BD042010BD0098042B01D07E
:100BD00004207047537811781B02C918018091785E
:100BE000D2781202891841800020704710B502980F
:100BF0001146062B03D0142B03D0042010BD022273
:100C000000E0102202714B780A781B02D218028091
:100C1000CB788A781B02D21842800279401D091DC8
:100C2000FFF706FA002010BD30B5039CD80718D195
:100C3000D805010E022914D30B488088814210D8B0
:100C4000F6200155002008E0557813782D025B1935
:100C50004500401C6353C0B2921C8842F4D300206C
:100C600030BD042030BD0000B071FF1F0098022B82
:100C700001D004207047117852781202891801803F
:100C80000020704770B5144602460498022B18D312
:100C9000667825783602AD1905800546E0352A7656
:100CA0006976002A0BD0E8219B1E9AB242808A42C4
:100CB00007D8A11C001DFFF7BBF9002070BDF4216F
:100CC000F2E7042070BD000010B50B461722024960
:100CD00002F036F910BD0000B508021110B50B4640
:100CE0000D22024902F02CF910BD0000DF080211AC
:100CF00010B50A78002A05D00B461122024902F0ED
:100D00001FF910BD022010BDEF08021110B50A78BE
:100D1000002A05D00B460922024902F011F910BD44
:100D2000022010BD0909021110B50B460F2202491D
:100D300002F006F910BD00002309021110B50B46A0
:100D40000B22024902F0FCF810BD00003309021129
:100D5000F72800D9F720084A01461080401EC31723
:100D60009B0F18188003000C5080491EC80F4018B4
:100D7000C003000C90807047B071FF1F044A1288B6
:100D8000914203D8024A4000921D11527047000060
:100D9000B071FF1F10B500231322194602F0D0F8DE
:100DA00010BDCB22520105E000BF00BF00BF1146BD
:100DB000491EFDD1401EF7D2704703E00821491EAD
:100DC0000029FCDC401EF9D27047000070B50C46CB
:100DD0000146032000020A1A002534481300FFF7D9
:100DE00039F91D1012151C1F2326282C30323438D7
:100DF0003A3C3E40424446484A4E50525A54565855
:100E00005A00C07911E01022294902E02849102235
:100E100010312046FFF70CF945E0C06A206042E03F
:100E2000224906223C31F4E7007820703BE08089BB
:100E300036E01E4942784231EBE71D4982781F397E
:100E4000E7E7007AF1E7407AEFE718490622303108
:100E5000DFE7807AE9E7C07AE7E7C08920E0808AA7
:100E60001EE0C0781CE0C08A1AE0008B18E0408BBE
:100E700016E0808B14E00D4906223631C9E7C08B9D
:100E80000EE0008C0CE0408C0AE08079CDE7008A0F
:100E900006E0408A04E0272904D2084600F0A4FABC
:100EA000208000E00225284670BD0000106EFF1F64
:100EB0005196FF1F70B50E4C00256071A571691E1B
:100EC000E18100F0C1FB0420E071102200210948FB
:100ED000FFF7C6F80748102200211030FFF7C0F8CE
:100EE000E562257265720720A072E57270BD000090
:100EF000106EFF1F5196FF1FFEB53F4D0C460804B4
:100F00000CD56879FFF7B2F8050004D003F082F938
:100F10002846FFF7B1F80120C00369E0600403D55B
:100F2000012080034840FEBDE007012600282ED0A6
:100F300032A002F029FA2878002821D0A8790528C3
:100F400021D0297A68460170697A41702A490622BF
:100F50003031801CFFF76CF8A97A68460172E97A93
:100F600041726946687900F05BFA002808D00720D2
:100F7000A871696A002903D00968002900D0884750
:100F800020467040FEBD032069460870E4E7A007D4
:100F90000ED5A879052809D1E889FFF773F8AA8A40
:100FA000002A03D002216879FFF772F802201FE0BF
:100FB000600707D517A002F0E7F9002003F096F9C3
:100FC000042015E0200715D518A002F0DDF92879D6
:100FD000012802D002280AD107E00096AB8B6A8B69
:100FE000298BE88A00F02EF801E000F07DF9082056
:100FF0006040FEBD0020FEBD106EFF1F0A5354412D
:1010000052545F4144564552544953494E475F45F7
:1010100056540A0053544152545F434F4E4E5F554D
:1010200050444154455F455654000000434F4E4ED6
:101030005F504152414D5F54494D454F55545F45B6
:1010400056540000F8B5134C069EA579052D01D025
:101050001420F8BD104F851FBD4219D2062917D3A1
:10106000BD1DA94214D2FF27F537BA4210D20A2B70
:101070000ED3AB420CD2E08221836283A38330463D
:1010800003F034F904216079FFF708F80020F8BD77
:101090001820F8BD106EFF1F7A0C0000F7B50D4642
:1010A00080490098164642187F4F00247879B97914
:1010B0001300FEF7CFFF190E141BE92040455970AD
:1010C000777E888FE996A2A9B4BFC8E9E9E9E9D398
:1010D000E900102D76D11022314674486FE0102DB2
:1010E00070D1724810223146103068E0042D69D169
:1010F0003068F862CEE0012D64D13B7832783A70E6
:10110000002B0AD0002A07D1022903D0062901D0DA
:10111000042901D100F03EF9BCE0002A0AD00129DF
:1011200005D0032903D0052901D0042902D10121CA
:10113000FEF7BAFFAEE0022D44D13088B881A9E0B5
:101140001F2D3FD858481F2200214230FEF788FF4C
:1011500055482A4631464230FEF76AFF524B7D70B1
:1011600042332A46012112E01F2D7CD84F481F220E
:1011700000211F38FEF774FF4C482A4631461F38BD
:10118000FEF756FF494B2A461F3BBD700021787978
:1011900000F0D0FA83E0012D65D13078042862D8C0
:1011A000387277E0012D5ED1307803285BD87872F1
:1011B00070E0062D57D13C48062231463030FEF70C
:1011C00037FF67E04FE0012D4DD1307807284AD82E
:1011D000B8725FE0012D46D13078032843D8F87209
:1011E00058E0022D3FD13288BA82002A52D0052918
:1011F00050D10221FEF74CFF4CE0012D33D1307865
:10120000012830D8F87045E03088022D2BD106280F
:1012100029D31921C901884225D8F8823AE03088BB
:10122000022D20D106281ED31921C90188421AD8BF
:1012300038832FE03088022D15D1FF21F531884207
:1012400011D2788326E03088022D0CD10A280AD3E7
:101250001921C901884206D8B8831BE03178012DD5
:1012600001D1012901D0182414E00821FEF722FF42
:10127000002801D016240DE0002003F037F80421E7
:101280007879FEF70BFF05E00098272801D2022DA0
:1012900002D002242046FEBD318800F0FBF904464E
:1012A000F8E70000FFFCFFFF106EFF1F5196FF1FC5
:1012B0001CB50B4CA179002901D011201CBD0028C0
:1012C00000D06062064907482C3103460191009026
:1012D000103B0022E179607900F016F800201CBD77
:1012E000106EFF1F6196FF1F10B506488179052912
:1012F00001D0122010BDC1891322407900F0DAF923
:1013000010BD0000106EFF1FFFB581B01E460D46D8
:1013100002240B9F0B00FEF79DFE0D1A0B1A1A0BF1
:101320001A1A1A1A1A1A1A081A000AA002F02CF825
:101330002946019800F0D8F8040008D13A46304612
:101340000A9900F087F900F0EBF801F04FFA204617
:1013500005B0F0BD4741505F446576696365496EED
:1013600069743A204741505F50524F46494C455F9F
:1013700043454E5452414C207C204741505F5052CF
:101380004F46494C455F5045524950484552414CA3
:10139000200A000070B5104C2168002904D009789B
:1013A000814203D0032070BD122070BD0B4D02217D
:1013B0002878FEF773FE0A48002646800421287824
:1013C000FEF76CFE07480680216803204870002065
:1013D000FEF776FE70BD00001C72FF1F4D72FF1FEE
:1013E0003072FF1FC071FF1F272803D2024940003F
:1013F000085A704701487047C871FF1FFFFF00007F
:1014000010B5064C607005F053FB6078FEF75EFE89
:101410000521607801F0E6F810BD00004C72FF1F56
:1014200070B5284E054630680C46002801D01120C2
:1014300070BD254801780520014216D023488068F8
:10144000002805D00078002802D0C80706D101E0A6
:10145000102070BD00F044F8002808D02078032840
:1014600005D0022803D0002801D0122070BD0C2026
:10147000FEF732FE3060002820D005700021417058
:101480000A222146801CFEF7D3FD03F013F8040066
:1014900002D002F095F912E00D48007803280ED131
:1014A0001D20FFF7A1FF0B490028088007D00B483B
:1014B000094A04210078FEF715FE00E013242046B7
:1014C00070BD00001C72FF1FBD71FF1F3072FF1F37
:1014D000BE71FF1FC071FF1F60EA00004D72FF1F49
:1014E00010B505F003FB10BD70B50C4605461C2277
:1014F00000210948FEF7B4FD084805704470FEF766
:10150000F7FD0549002803D000200870122070BDA7
:1015100001220A7070BD0000A4B0FF1FBC71FF1F44
:1015200070B50F4C0025A068002802D0FEF7E6FD3C
:10153000A560E068002802D0FEF7E0FDE5600948FC
:1015400005210078084206D00548103002F00AFD57
:1015500002F0D8F870BD002002F004FD002070BD3C
:101560003072FF1FBD71FF1FFEB5344D0C460804DD
:1015700019D56878FEF77AFD0121C9034C4006466B
:1015800000280ED002F00EFC002807D12878FF2892
:1015900004D03146FEF7B8FD002802D03046FEF7F1
:1015A0006BFD2046FEBDE007012700280AD0A86891
:1015B000002804D04168002901D000208847204637
:1015C0007840FEBDA00709D56868002804D04168AE
:1015D000002901D00120884702202AE060072AD58F
:1015E000174E308800281FD0401E0004000C3080A9
:1015F0001ED102F057F9002809D012480770686818
:10160000002804D04168002901D00120884702F059
:1016100023F9694601F044F8684602F0ADFB1D204D
:10162000FFF7E2FE308003E004216878FEF736FD24
:1016300004206040FEBD0020FEBD00004C72FF1F74
:10164000C071FF1FBF71FF1F014908707047000084
:101650004C72FF1F70B50E4C0B46261D07C6054683
:10166000102200211846FEF755FD012803D1102154
:10167000A06807F02BF9102200212846FEF74AFD4A
:10168000012803D11021606807F020F970BD000027
:10169000A4B0FF1F272807D2044A914204D0044A6D
:1016A000400011520020704702207047FFFF0000E9
:1016B000C871FF1FF8B50D4617461D4906461B4A5F
:1016C0001224C868954208D100282DD00268002A4B
:1016D0002AD029463046904723E0144A521C9542AE
:1016E00013D1002807D00268002A04D029463046CA
:1016F0009047040005D03946304601F03FFF040012
:1017000012D10B48067047700EE0284605F0A0F98C
:10171000002809D00078B04205D139462846FEF7A6
:10172000FFFC044600E003242046F8BDFEFF000055
:101730002072FF1FF8B50E4601461948154600787D
:1017400005221F46104028D0304326D01548012ED0
:101750001BD0C468002C20D01F2D18D8002D01D01C
:10176000002F14D001701F220021601CFEF778FCAE
:101770002A463946601CFEF75BFC28462570002E81
:1017800007D0611CFEF7D2FCF8BD8468E2E70220B6
:10179000F8BD611CFEF7D0FCF8BD1220F8BD0000BA
:1017A000BD71FF1F3072FF1F014610B50020C90731
:1017B00004D0034A0421034800F0FCF910BD0000E6
:1017C000ECA20211946EFF1F10B5002309E01C016A
:1017D0002418E468944202D11901081810BD5B1C5A
:1017E0009BB28B42F3D3002010BD000070B50F4DAB
:1017F0000F4CA87029461831204600F01DF8002132
:1018000028460B461030CA0084521218491C09069B
:101810005360090EF7D0012003F02CFDA87800F0EA
:1018200091FB044805F074F970BD0000746EFF1F51
:10183000FFFF0000AD4A021170B50A4C0025A0421E
:1018400009D1002082008C525218401CC0B2957001
:101850000228F7D370BD03F0F8F80028FAD004800E
:10186000857070BDFFFF0000F8B50E46074606996B
:1018700000240798002902D00B242046F8BD022B33
:1018800001D00D24F9E711785278120289188DB22F
:101890002946814301D08024EFE73846F16800F003
:1018A00081F9A842E9D02A463846F16800F0ECF9FF
:1018B0000400E2D171892A46384600F0A9F9DCE734
:1018C000FFB50446C1B01F4600881D4A00254A9B4B
:1018D000904232D0A07800282FD00A4619463846C8
:1018E000FFF772FF060028D02088164A4100515C9D
:1018F0000023C91EC9B203AA0232019302910092C9
:101900007A8904AB314600F03BF8002815D1708984
:1019100069468881A078C00705D0208803A9439A2A
:1019200000F0DEFA0546A078800706D5208803A9D6
:101930004B9B439A00F078FA0543284645B0F0BD2A
:10194000FFFF0000B671FF1F70B50C46080412D5EA
:101950000A488078FEF78AFB050008D02878B0286E
:1019600002D1284603F08EF92846FEF785FB0120B8
:10197000C003604070BD002070BD0000746EFF1F8A
:10198000FFB587B0087A0025109E1C460F46C0069A
:101990000DD5099803F052F8030006D00A22394603
:1019A00007989847050035D101E00E2532E03878D8
:1019B00002281DD17868292201784078120200029D
:1019C000081880B2811A90427ED009DC7249401A10
:1019D00023D0012821D0022851D0032808D125E0A6
:1019E000012972D0022971D003296DD004296ED04B
:1019F000099803F04BF80028D7D00568002DD4D003
:101A00001299119801910090334622463946079861
:101A1000A847054628460BB0F0BD1198002873D1A1
:101A2000F868017831800278416897E011980028C1
:101A30006AD101203080F868002100782070788910
:101A4000401C80B200F04EF900280FD03188027897
:101A50008918891C3180817A61704189090AA170D5
:101A600002784168E01CFEF7E3FAD3E730880422ED
:101A7000001D30800021601CFEF7F2FACAE71198C1
:101A8000002872D1F86804A90088009004203080F2
:101A9000009820700098000A6070009800F022F909
:101AA000070028D0F86805906846028A03AB3B49D6
:101AB000384600F06FF900280FD13B7802213848F2
:101AC0007A68FEF73EFF03E027E031E01DE049E0E1
:101AD000002802D13148694688810598007802289B
:101AE0000CD1059802224168201DFEF7A1FA30882A
:101AF000801C308002E069460098888168468089B1
:101B0000A070000AE07085E72FE0119800282CD122
:101B1000F968079800F046F804E01198002824D1ED
:101B2000F8680088022131802070000A607071E737
:101B3000F868FEF707FB1199C0B2814210D88142C4
:101B400001D1002206E0129A8918814202D311992C
:101B5000401AC2B23280F96811980918204682E70B
:101B6000072557E71198002801D00B2552E70721D8
:101B7000F868318001782170417861708178A170B6
:101B80004188090AE1700179217181796171C08808
:101B9000000AA0713EE7000000280000FFFF0000DF
:101BA000CAAE021110B502F050FF002800D08078B4
:101BB00010BD00007CB51446050019D0684601959B
:101BC000018000F0C5F903001DD1002C1BD06D89E8
:101BD000002D0DD00C20FEF77FFA00280AD000233C
:101BE00003608580094A84609168002904D006E07A
:101BF000022308E0132306E0906004E011460A681F
:101C0000002AFBD1086018467CBD0000746EFF1FDF
:101C1000F8B50C4C0746207815460E46FF280FD025
:101C20000A20FEF795FA01000AD0B12008700020C2
:101C3000487008714F80CE800D812078FEF764FADD
:101C4000F8BD0000746EFF1FFFB583B008461F4645
:101C500001A90C9E00F046F8050012D06846808865
:101C600002F014FF00280AD04468002C07D0009628
:101C70003B462946059A0398A04707B0F0BD0E20C1
:101C8000FBE70120F9E7000070B514460E46054653
:101C900002F0DBFE002806D13146054802F0D5FEF1
:101CA000002803D005808470002070BD112070BD15
:101CB000FFFF000010B50178B0290BD14178002951
:101CC00008D10179122906D01B2903D140880121AE
:101CD00000F012FC10BDFF210231095C0129F5D092
:101CE00010BD0000F0B58C4610494B6819E09F68A4
:101CF0007C89A04214D39E883119814210D90022D8
:101D00000CE011017D186989814205D160460028E7
:101D100000D004802846F0BD521C92B29642F0D802
:101D20001B68002BE3D10020F0BD00005872FF1F9C
:101D3000FFB5174881B00A9F446824E000251EE0E3
:101D4000A0682901461870890199884215D3029923
:101D5000884212D80498002807D031787068049B14
:101D6000039AFEF7EEFD002807D0002F02D0A068EE
:101D700040893880304605B0F0BD6D1CADB2A088FA
:101D8000A842DDD82468002CD8D10020F3E7000059
:101D90005872FF1FFEB5174600256A469580044617
:101DA00040891D4A1E46904208D001AA0092401C5C
:101DB000237880B26268FFF7BBFF054623780221D3
:101DC00016486268FEF7BDFD002807D1237802217E
:101DD00013486268FEF7B5FD002801D060890EE067
:101DE000237802210F486268FEF7ABFD00280DD072
:101DF000002D03D068468088B84203D0384603F0EF
:101E00004DFB04E06889401E80B200E06089002E2E
:101E100000D030802846FEBDFFFF0000C8AE021192
:101E2000CAAE0211CEAE0211FFB581B00F461E46FA
:101E300014466946019802F04FFC050018D1002CA9
:101E400006D001221021019804F0DCFD05000FD11D
:101E500039460198FEF70AFE050009D1009CFF2EC5
:101E600006D021461E22A31C034803F023FBE67084
:101E7000284605B0F0BD0000A153021110B5054978
:101E80000870042100F0AEFB00F006F8FEF702FE39
:101E900010BD00006872FF1F70B50E4C00200C4B87
:101EA000651CFF228100C91800280ED00D80401C3F
:101EB000CA70C0B28A700228F4D3074802F0B0FD9D
:101EC000064804F025FE002070BD0C80EFE70000FE
:101ED0006072FF1FFEFF0000CD530211215302115B
:101EE000F8B50D4614460646694602F0F5FB17287C
:101EF0000CD0002C06D001221021304604F082FDC7
:101F0000002803D129463046FEF7BAFDF8BD00008F
:101F100070B50C46080411D509480078FEF7A6F8FC
:101F2000050007D00178A02901D102F01DFD284647
:101F3000FEF7A2F80120C003604070BD002070BD14
:101F40006872FF1F01490870704700005872FF1F38
:101F500070B50546008800281DD068680221037806
:101F600042682248FEF7EDFC002808D1686802218B
:101F7000037842681E48FEF7E4FC00280BD01D4C95
:101F80006088002805D0012229881204101A814295
:101F900003D9012070BD022070BD0C20FEF79CF813
:101FA000060001D000200AE0132070BD02016B681A
:101FB00061880A329952491C401C618080B229888C
:101FC0008142F3D80020306008222946301DFEF7F8
:101FD0002FF86068002802D1666004E008460168B6
:101FE0000029FBD10660002070BD0000C8AE0211C0
:101FF000CAAE02115872FF1F0649496806E08A6896
:102000005289824201D18888704709680029F6D137
:10201000002070475872FF1F10B51422114201D0E2
:10202000012202E04A0604D50022102104F0EAFC55
:1020300010BDC80701D0002010BD022010BD10B592
:1020400014468A0604D50122102104F0DBFC10BDE1
:10205000882211420ED008220A40102104F0D2FC3E
:1020600000280BD0E034617E0029F0D0217E0129C8
:10207000EDD103E0880701D4032010BD002010BD7E
:1020800070B50246012815D0022A15D0032A17D0B0
:10209000092A1AD00B2A1CD00D2A1FD00E2808D1CD
:1020A0000D46084600F020F80446284600F026F8C1
:1020B000604070BD084670BD084600F01FF870BD56
:1020C0000C46084600F01AF80CE0084600F02BF821
:1020D00070BD0D46084600F026F8E5E70C460846B8
:1020E00000F002F8604070BD70B5054600F015F8CC
:1020F0000446284600F00BF8604070BD4000FF2108
:102100000131084202D0C0B21B214840704710B5CF
:10211000FFF7F4FFFFF7F2FF10BD10B5FFF7F7FF71
:10212000FFF7ECFF10BD10B50446FFF7F6FF604067
:1021300010BD0000014610B50020C90704D0034AB5
:1021400007210348FFF736FD10BD0000D8A2021199
:102150009C6DFF1F70B50D46164600241D490300F7
:10216000FDF778FF08051234341934222934112D73
:1021700023D8122200211848FDF772FF2A46314663
:102180001548FDF755FF22E0022D16D111491088A0
:10219000103908801BE0082D0FD10E480822314667
:1021A0000838FDF7DBFF12E0012D06D1CA690949A5
:1021B0003078283107E0012D01D0182407E0CA6BE0
:1021C00004493078483103F01AFB00E0022420462D
:1021D00070BD00009C6DFF1F2096FF1F30B5084AA0
:1021E000084B08E00578140A55402A06D20D9A5A81
:1021F000401C6240491E0029F4D1D04380B230BD5A
:10220000FFFF000054A3021170B5124C0025206896
:1022100061148843206000F08DF80520FEF7CDFDA5
:1022200020682614304320600520FEF7C6FD0D20EF
:1022300003F080FC002800D001252068B043206016
:102240000220FEF7BAFD00F07BF80220FEF7B5FD94
:10225000284670BD00800040FFB581B01E46144680
:10226000074600250AE000F0EFF80A20FEF7A5FD7A
:102270006D1C052D02DD012005B0F0BD00F0CAF88F
:10228000384600F0A1F80028EDD1029800F09CF843
:10229000002801D00220EFE700F0BCF83846012109
:1022A000084300F091F8002801D00320E4E700255E
:1022B000761E05E0002000F00DF82070641C6D1CF7
:1022C000B542F7DB012000F005F8207000F0BCF803
:1022D0000020D1E7F1B5002500F02CF80520FEF72D
:1022E0006CFD134C002627142068384320606806D4
:1022F000050E0D2003F01EFC002801D0012005432F
:102300000120FEF75AFD2068B84320600520FEF743
:1023100054FD761CF6B2082EE6D300F011F8022028
:10232000FEF74BFD009800F011F82846F8BD0000BC
:102330000080004010B500210D2003F0A9FB10BD66
:1023400010B501210D2003F0A3FB10BD012100B544
:1023500049030D4A0028106801D0084300E0884373
:1023600010600120FEF729FD106801239B0318432C
:1023700010600120FEF721FD1068984310600120D5
:10238000FEF71BFD00BD000000800040F8B51646BA
:102390000D460746002400F03DF8384600F014F8DA
:1023A00000280AD00120F8BD28786D1C00F00CF838
:1023B000002801D00220F8BD641CB442F4DB00F018
:1023C00043F80020F8BD0000F8B58027104A00232C
:1023D000BE01054614143846D8402842106801D082
:1023E000304300E0B04310600120FEF7E6FC1068C7
:1023F000204310600120FEF7E0FC1068A04310604D
:102400005B1CDBB2082BE6D3FFF7FEFEF8BD000035
:102410000080004010B50B4A106853141843106038
:1024200010681414204310600120FEF7C6FC1068E9
:10243000984310600020FEF7C0FC1068A0431060B5
:1024400010BD00000080004000B50B4A1068531416
:10245000984310600120FEF7B0FC10680121890349
:10246000084310600020FEF7A8FC106818431060B5
:102470000120FEF7A2FC00BD008000400B78037035
:102480000B8802221B0A43700B88801C012B02D090
:10249000022B07D011E08A7802704988090A41703E
:1024A00004220AE08A7802704A88120A42700A7985
:1024B00082708988090AC1700622104670470000A0
:1024C00008B5044B009313460A46012104F0C6F9EF
:1024D00008BD00007D2402111CB503230192009366
:1024E0000A46024B122104F0E9F91CBD7D6102117C
:1024F00010B5FDF739FE10BD13B50448007801286A
:1025000003D101AA6946FDF735FE1CBD7472FF1F99
:1025100070B50F490F4A087000210B468C00491C0A
:10252000C9B213530429F9D30A4C00211034FF26F1
:102530000A460A256A4315196B80491CA354C9B27F
:102540006E720329F4D3FDF71BFE04F05BF970BD36
:102550007572FF1FC0B0FF1F082A01D0012070470D
:102560004B780A781B02D2180280CB788A781B023B
:10257000D21842804B790A791B02D21882808A795C
:10258000C97909025118C1800020704770B50C4606
:10259000080411D509480078FDF768FD050007D04B
:1025A0000178902901D104F08FF82846FDF764FDE9
:1025B0000120C003604070BD002070BD7572FF1F18
:1025C00070B500280AD1064C00252580A581A5807C
:1025D000A068002802D0FDF7D9FDA56070BD0000FD
:1025E0004CB1FF1F072907D0052905D0042903D0C6
:1025F000062901D002207047044A8B009A1813461E
:10260000403B1986203A907400207047C0B0FF1FED
:1026100070B506001BD10E4C0025214640310D74CB
:102620004D740D76606D002802D0FDF7AFFD656535
:102630005C20002546433419E80020184068002833
:1026400001D0FDF7A3FD6D1CEDB20A2DF4D370BDD2
:102650005CB1FF1F70B50A880C460546072A07D0F3
:10266000052A05D0042A03D0062A01D0022070BD15
:10267000012104F07BFA002804D02146284603F00B
:1026800093FD70BD142070BD10B5001D80B2FDF724
:1026900083FD002803D00321C943FDF783FD10BD4E
:1026A00038B50C46050014D0002C12D00321684622
:1026B00006F00CF96946887840218006800E0843B0
:1026C000694688702246284606F038FE050002D08A
:1026D00006E0022038BD03226946E01CFDF7A8FC95
:1026E000284638BDF7B58EB00E9815460E46002820
:1026F0002DD0002D2BD0301DC0B20190FDF7ECFC89
:10270000040039D001F0B4F807463246201D0E9976
:10271000FDF74EFDF8B20890E0703804000E0B9003
:10272000A0703802000E0A9060703F0E277001F012
:1027300099F80146102202A8FDF73AFD06AB2146A2
:1027400002A8019A06F050FD060003D010E0022016
:1027500011B0F0BD089828700B9868700A98A8709E
:10276000EF70082206A9281DFDF722FD01F086F86A
:102770002046FDF7C3FC00E013263046E8E70000E2
:1027800010B5064C2070FDF719FD06212078FFF7E3
:1027900029FF034804F0BCF910BD00008472FF1F3C
:1027A0002189021170B50C46080419D50D4800782E
:1027B000FDF75CFC05000FD006F0D2F9002808D127
:1027C00009480078FF2804D02946FDF79DFC002821
:1027D00002D02846FDF750FC0120C003604070BDC8
:1027E000002070BD8472FF1F4C72FF1F10B505489A
:1027F0000078400701D5044800E0002006F038FAD0
:10280000002010BDBD71FF1F7872FF1FFFB58DB096
:102810000F98169C0E46002815D0002C13D00D984A
:1028200004F016F9050011D06178207809024018EB
:10283000A178E2780904120689184718286AB84274
:1028400006D3401C04D0022011B0F0BD1420FBE7D9
:10285000002E04D02879800701D40120F4E7082253
:10286000002106A8FDF7FCFB1098001DC0B20190E6
:10287000FDF732FC060017D0301D109A0F99FDF7B6
:1028800097FC042221463046FDF792FC1022A9183D
:1028900002A8FDF78DFC06AB314602A8019A06F0AE
:1028A000A3FC050002D013E01320CDE7082206A9FF
:1028B00008A8FDF77DFC0822211D08A8FDF7C4FB30
:1028C000012801D0012503E039460D9801F04CFEA6
:1028D0003046FDF713FC2846B6E7000070B500242B
:1028E000224621466020FFF751FD184D184E002862
:1028F00015D0002211466220FFF748FD002811D0B4
:10290000002211466420FFF741FD00280DD000226F
:1029100011466620FFF73AFD002809D013E0602435
:10292000286807E06224686804E06424A86801E07D
:10293000E86866240022F06011462046FFF726FD75
:10294000002800D00024204670BD00001C9AFF1F04
:102950002470FF1F30B55F4C8BB0607106211F20C3
:10296000FEF798FE00206946087201220A730722CA
:102970000A74888218228A8320220A848884FF208D
:10298000F530088554A003C801910090607869462D
:10299000087606AA01215248FEF780FB50486A4695
:1029A0000621801CFEF77AFBC32004AA01218000C7
:1029B000FEF774FB4A4802AA0121001FFEF76EFBD6
:1029C000474805AA0221C01EFEF768FB2146563182
:1029D000084611223838FDF72BFB224661201C32B5
:1029E0001C21C000FEF75AFB204610223D493D3015
:1029F000FDF71EFB21460D31084603224230FDF74C
:102A000017FB3748224638321E21801EFEF746FB50
:102A1000312003AA01210001FEF740FB304807AA3C
:102A200002210830FEF73AFB2D4808AA022109309E
:102A3000FEF734FB2A4809AA02210A30FEF72EFBD2
:102A4000C5200AAA02218000FEF728FB2246563242
:102A500011210020FFF77EFB19256D012946062074
:102A6000FEF718FE29460720FEF714FE2946082027
:102A7000FEF710FE29460920FEF70CFE0025ED4367
:102A80002846FFF757FB2846FEF78EFE012004F08C
:102A900049FF154804F0E6FA86250120FDF794FB6E
:102AA0000120FDF797FB2846FEF752F929460FA0B3
:102AB00000F06AFC01216079FDF7F6FA6079FEF713
:102AC000C3FD204603210A30FDF78AFBFDF78EFB8C
:102AD0000BB030BD746FFF1F010203040506000038
:102AE00009030000F8A20211C57002115B324D62A9
:102AF0007073207C20444C45207C204D545520256B
:102B0000645D200A00000000F0B587B00026029640
:102B10000396684604960675AC4C0D46080417D516
:102B2000ABA000F031FC6079FDF7A0FA04000CD0F6
:102B30002078912806D160780E2803D1A188A8A01A
:102B400000F022FC2046FDF797FA0120C00338E18F
:102B5000E807012700280CD0ACA000F015FC9B482A
:102B60001430FEF7A5FBFDF747FB2846784007B079
:102B7000F0BDA80762D5217894480B00C078FDF716
:102B800069FA050A0419263B240064210220FDF796
:102B900039FBFF2104E0FF210220FDF733FB642114
:102BA0000020FDF72FFBFF210120FDF72BFBFDF798
:102BB0002FFB0AE0002805D0FF210220FDF722FBB1
:102BC00064210BE0FF2105E0E0700220F9E000281D
:102BD000F8D064210220FDF715FBFF210020FDF74E
:102BE00011FBFF210120FDF70DFBFDF711FBE07844
:102BF000002821D00020E7E700280ED0FF21022086
:102C0000FDF700FBFF210020FDF7FCFAFF2101206A
:102C1000FDF7F8FAFDF7FCFADBE7FF210220FDF7EC
:102C2000F1FAFF210020FDF7EDFAFF210120FDF769
:102C3000E9FAFDF7EDFABFE70120C5E7680731D5EE
:102C4000E08803F029F901281FD0684606750023A3
:102C500000961A4605A91846019607F0A7F8E680DF
:102C60000B2170A005F016FC002007F03DF8A8200D
:102C700007F03AF804216079FDF710FA5A2208218A
:102C80006079FDF705FA04209BE0E18868A000F078
:102C90007BFB642204216079FDF7FAF9E088401C8F
:102CA000E080F0E728072ED503F0D6F90220207047
:102CB00007F0DAF90246062814D0052A14D0072AAC
:102CC0001FD027705FA102A8FDF7A8FA062102A86D
:102CD00005F0E0FB7D22D20008216079FDF7D8F9EC
:102CE00008206EE05A22F7E70420207002F01AFD57
:102CF0002681267108216079FDF7D0F946228021CE
:102D0000EBE72670DEE7280642D550A000F03CFB3A
:102D100000F054F90A2816D00B2824D0002835D00A
:102D200027700246267147A102A8FDF777FA06210F
:102D300002A805F0AFFB7D22D20008216079FDF7E3
:102D4000A7F980203DE02089002808D1002245A174
:102D500002A8FDF763FA0C2102A805F09BFB20896D
:102D6000401C20810FE020796421401CC0B22071FA
:102D70004843208142083BA102A8FDF74FFA0C21ED
:102D800002A805F087FB0A228021D7E72670C8E752
:102D9000680608D5FDF748FA364A40216079FDF704
:102DA00077F940200DE028050DD533A000F0ECFAAE
:102DB000684607706A4601213548FEF76FF9012021
:102DC000C0026840D3E60020D1E60000746FFF1F08
:102DD0005359535F4556454E545F4D53470A0000C3
:102DE0003D3D3E204843495F434F4D4D414E445F7A
:102DF000434F4D504C4554455F4556454E545F43F7
:102E00004F44453A2025780A000000005342505FA5
:102E100053544152545F4445564943455F455654C7
:102E20000A000000446F776E6C6F61645F4F4B0067
:102E300048616E646C652046696C65204E756D2036
:102E400025640A00436F64653A2564005342505F6D
:102E50005550444154494E475F434849505F455699
:102E6000540A000050726F67726573733A253033ED
:102E70006400000088130000474150524F4C455FEA
:102E80004144564552545F454E41424C45440A0028
:102E900005030000002805DBC106C90E012088409B
:102EA000014908607047000000E100E08307FF224D
:102EB000DB0E9A408907090E9940002808DB830839
:102EC00009489B001B181868904308431860704716
:102ED0000007000F0838830804489B001B18D869B6
:102EE00090430843D861704700E400E000ED00E043
:102EF0000A4610B501460020FDF79CF910BD000000
:102F0000F3B585B000248D006E46281981000B486A
:102F10004058694606F0DCFE0020A100059A030136
:102F20009A1887005358F759401C7B405350042887
:102F3000F4DB641C042CE8DB07B0F0BDB8A9FF1F6C
:102F4000FFB583B00F4603981B4940001646085A48
:102F5000FFF79AFB04002AD00125601C2670002F81
:102F600003D00699B847401C85B2300610D5102111
:102F7000039803F0FBFD002801D0192613E0621925
:102F8000E9B22046FFF7AEFB06000CD10C35ADB21E
:102F90000421684601800194058169460398FFF782
:102FA00059FB060004D02046FDF7F0F800E0132698
:102FB000304607B0F0BD0000B671FF1FF0B5002528
:102FC00087B06B4C0295039504950F273F026289E9
:102FD0002946A069FDF744F8617866A000F0D4F9AD
:102FE0006678022E68D2E078012821D16189644890
:102FF000FDF726F960716348A171805D3946401E76
:103000004843E061E1683A4640185E498C3104F07B
:10301000D7FF0146E5705CA000F0B6F9E168E06911
:1030200041185BA000F0B0F939465EA000F0ACF9A1
:10303000A1786279914237D86089352603464843A2
:10304000801C360380B2914213D14E49A3798C3152
:10305000A26905F07AFA6089A178A279484361787B
:10306000090389194018A16906F0BEFF002811D193
:103070001AE04449A2698C3105F067FA61786289E7
:10308000A0780903504389194018A16906F0ACFFE4
:10309000002805D047A000F077F9012007B0F0BD67
:1030A000A078401CA0705BE06078401C607001203C
:1030B000E070A5700B20F1E7022E18D0032E33D05C
:1030C000002102A802F0EEFA2E480A2202A90A30D4
:1030D000FCF7AEFF2B493C480A3106F03DFF0028C3
:1030E00040D03AA000F050F965700420D6E73EA128
:1030F00003C9019100902078694648717D22D20071
:103100000721684605F0A0F860690178022905D119
:103110004178FD2902D1807800281ED0657034A046
:1031200000F032F90220B9E738A103C901910090FB
:103130000A220721684605F087F8606901780329AB
:1031400005D14178FC2902D18078002805D065702E
:1031500027A000F019F90320A0E76078401C6070F8
:103160000A209BE765702BA000F00EF9002095E780
:103170002470FF1F6E756D3A25640D0A0000000073
:10318000D20E00002C9AFF1F613A25640D0A000040
:103190006F66667365745F616464726573733A2504
:1031A000640D0A00646174615F6C656E3A25640D9C
:1031B0000A0000007570646174655F736E64617409
:1031C00061206572720A00000052020055504441AD
:1031D00054455F4241434B444F4F525F4641494C37
:1031E00045440D0A00000000407D0402FD0000007F
:1031F0005550444154415F54595045444154415FF6
:103200004641494C45440D0A00000000407D04033E
:10321000FC000000535543434553530D0A00000082
:1032200010B586B0044614220FA16846FDF70EF8CB
:10323000124930200870782048700620891C6A46A0
:10324000A41D641E2378401E1B09D35C0B702378D9
:1032500000061B071B0FD35C4B70891C000EF0D1BE
:103260000870064806B010BD303132333435363779
:10327000383941424344454600000000F499FF1F9D
:10328000F8B51D480025056017211C4804F0C0FE54
:103290001A480B300646FCF7DFFF184C034621782E
:1032A000621C17A000F070F820781E4F002807D18C
:1032B0006078FF2804D03046FCF7CEFFB84218D023
:1032C00019A000F061F80A221BA1601CFCF7B0FEF7
:1032D0000220207031463846FCF7C4FF07493846C3
:1032E0000F31FCF7BFFFE57425756575A5750120E5
:1032F000F8BD0020F8BD00000C70FF1F039AFF1FEF
:1033000066696C653A73746174653A25642C202093
:10331000563A25732C20616464723A253038580A75
:10332000000000000040021166696C655F696E660E
:103330006F20696E69740A003030303030303030C0
:103340003030000030B5002300229C0015012D18FC
:103350002D5D0D70491C521C042AF7DB5B1C042BED
:10336000F2DB30BDF0B500252C460023A6001F017E
:10337000425D7F185B1C6D1CBA51042BF7DB641C8B
:10338000042CF2DBF0BD00000FB410B503AA044812
:10339000029903F0FDFB10BC08BC04B01847000004
:1033A000F12E021138B5034B00240FCB0094FCF72B
:1033B0005FFF38BDC0A20211F7B5AAB0104600F0F9
:1033C00029F9002042E017992A984018694614907C
:1033D000FFF7C8FF0A216846FFF792FD09246846F7
:1033E00000F0AEF8684600F07FF8684600F034F868
:1033F0001AA9204602F0BEF81AA800F02DF81AA863
:10340000EE468446002100200A016346D518724426
:103410008300D658EF58401C7E40D6500428F7DB76
:10342000491C0429EFDB641E012CD8DA704600F039
:1034300087F8684600F058F800216846FFF760FDFD
:1034400068461499FFF77EFF1798103017902B9954
:103450008842B8DB2DB0F0BDF1B594B000216A46CA
:10346000149C0B0100201D199C188300EE58401C71
:10347000E6500428F9DB491C0429F1DB0024200173
:103480001499139040181190164913980025461866
:10349000A8006946109009581248139A8058FEF700
:1034A000EFFD074610986946401812900169706850
:1034B000FEF7E6FD47401298016AB068FEF7E0FDAE
:1034C00047401298016BF068FEF7DAFD474011990A
:1034D00010986D1C0F50042DDADB641C042CCEDB1D
:1034E00015B0F0BDDCAD0211F0B58DB0074600207F
:1034F0006C4604AD08AE8100CA1913696350136AA3
:103500006B50126B401C72500428F4DB01212046E2
:1035100004F0FCFF022104A804F0F8FF032108A82E
:1035200004F0F4FF00208100CA19635813616B583E
:1035300013627158401C11630428F4DB0DB0F0BD18
:10354000F1B582B000250298002429010E18A000D0
:1035500000903758384602F03BF882010648390798
:103560001018890E41580098641C3150042CEEDB71
:103570006D1C042DE7DBFEBD74A9021110B50C46CD
:1035800003F07AFA002804D040882146FCF7C8FDF1
:1035900010BD122010BD00210B2806D90246303A7A
:1035A000032A02D90C3A032A01D8022113E0024669
:1035B0000C3A0B2A02D9403A032A01D801210AE029
:1035C0000246183A0B2A05D91C3A072A02D9403874
:1035D000032800D8032108467047000070B548430F
:1035E00009490B4E086009494018C117090D081810
:1035F0000513002404E020038019FCF73FFE641C3F
:10360000AC42F8D370BD00000C70FF1FFF0F00002C
:1036100000400211F0B52C4C89B000239D00291800
:103620000A784E788F78120636043F02C978324302
:103630003A430A435B1C6251042BEFDB0425002054
:103640000090A8070CD02049AA0050188038036FBA
:10365000C06F43408B506D1C2C2DF2DB09B0F0BDC8
:10366000A80019490790401880380690C06F00994B
:10367000059101A906F02CFB012101A803F064F9D2
:10368000002401AEA700F05901F0A6FF641CF05120
:10369000042CF7DB019802060298010403980A4300
:1036A000030204981A430243059808498000095808
:1036B00005485140069A126F5140079A8150009870
:1036C000401C0090C7E70000B8A9FF1F74AD0211AD
:1036D0000022002913D0002811D0012806D04A79F1
:1036E0009206920E4A71032805D007E04879C0225D
:1036F0001043487102E0402002434A710122104603
:103700007047000070B51248002500780521084276
:103710001BD02020FCF7E0FC0E4C0028A06013D04A
:1037200020220021FCF79CFC2020FCF7D5FCE06067
:10373000002804D020220021FCF792FC05E0A068BC
:10374000FCF7DCFC0020A0601325284670BD0000BB
:10375000BD71FF1F3072FF1F002909D0012807D15A
:10376000497989098901C02902D0402901D0022064
:10377000704703207047FFB500200E4608701AE01E
:103780001C5C401CC5B2002C17D02819904214D8DC
:103790005F5D6D1CEDB2384600F00FFF002806D0CB
:1037A000641EE0B2307000998F4202D1581904B003
:1037B000F0BD4019C0B29042E2D30020F7E700000C
:1037C00010B5044C2068002803D0FCF797FC0020BB
:1037D000206010BD1C72FF1F70B50E4D840028596B
:1037E000002815D0006A002801D0FCF787FC285972
:1037F000406A002801D0FCF781FC2859806A002823
:1038000001D0FCF77BFC2859FCF778FC00202851FC
:1038100070BD00002872FF1F10B5044C60680028BE
:1038200003D0FCF76BFC0020606010BD2072FF1F0E
:103830000100044805D104498978002901D00248D3
:10384000801D7047B4B0FF1FBC71FF1F0148807816
:1038500070470000BC71FF1F0148406870470000BE
:10386000A4B0FF1F0148806870470000A4B0FF1F8C
:103870000148C06800687047A4B0FF1F10B5074832
:10388000C0680168491C016005480078FF2803D022
:1038900001218903FCF708FC10BD0000A4B0FF1F44
:1038A000BC71FF1F02484068002800D0012070470B
:1038B0001872FF1FFFB581B00F460D9E0A9D039839
:1038C00003F0C6F8040042D0019800283FD12079C7
:1038D0001021084320710499490702D502210843A9
:1038E00001E0FD21084020710B99284608430C99FE
:1038F00008433043207902D00421084301E0FB2132
:1039000008402071002E06D0306910222062314616
:10391000A018FCF78DFB002D01D0002F05D00B98CF
:10392000002814D0012F08D011E0606A002801D0CF
:10393000FCF7E4FB1C21284606E0606A002801D061
:10394000FCF7DCFB1C210B98FCF79EFC60620398E3
:10395000224C8700E05900283ED0002D0FD0006A8D
:10396000002806D11C20FCF7B7FBE15900280862AB
:1039700005D0E0591C22006A2946FCF759FB0C9837
:10398000002810D0E059406A002806D11620FCF724
:10399000A3FBE1590028486205D0E0591622406A8D
:1039A0000C99FCF745FB002E10D0E059806A0028E6
:1039B00006D11420FCF790FBE1590028886205D05D
:1039C000E0591422806A3146FCF732FB0B9B049AC3
:1039D0000399019804F0CAFD05B0F0BD2872FF1FDD
:1039E000F3B581B0019803F033F8050029D00E201B
:1039F000FCF7AEFB040024D02620FDF7F5FC060002
:103A000000D12E78D0202070002767700B20A07086
:103A10000622E91DE01CFCF70BFB0198608102986F
:103A2000C1070120002901D0207300E0277302990B
:103A3000890701D5607300E06773F0B22146FCF797
:103A400063FBFEBD10B581881F4B0124CA1A994241
:103A500037D011DC1D4BCA1A994219D007DC1C4A19
:103A60008A1810D0022A1ED0032A29D11BE0472A27
:103A700027D0482A24D124E01300FCF7EBFA0621D2
:103A80002222222222218068007800F057FD08E0DF
:103A90008068827841781202891889B2007800F033
:103AA000ADFD04460DE0094A921E914201D101226A
:103AB00000E0002280680178104600F087FD00E0F9
:103AC0000024204610BD0000532000000A20000002
:103AD000FADFFFFF70B51A4D1A4A01460026287812
:103AE0001268194C01290CD0002A09D0174909780D
:103AF000490705D50221FCF7D1FA6680FFF760FE81
:103B000070BD6188002903D0114B1B78002B05D0B4
:103B1000002AF5D01078FDF73DFC70BD3C2902D39A
:103B20003C39618070BD0221FCF7B8FA62887D20C3
:103B3000C000424302212878FCF7AAFA668070BDD3
:103B40004D72FF1F1C72FF1F3072FF1FBD71FF1FE0
:103B5000BF71FF1F08B5418900910389C288818820
:103B6000C07800F037FC08BDF0B504468088A1217C
:103B700089004843304987B009684018FF30FF305A
:103B80000230A1794167002C54D02C4D6868002880
:103B900023D006782A480068002804D0416800290C
:103BA00001D0002088472146E07908310591FFF7D0
:103BB000D3FDE0710246277D638A218AE089019066
:103BC00002A88AC0A0880090E0783146059B04F0E6
:103BD00043FDE078002802D00DE01A48D9E7E079EB
:103BE000E2896B46059907C3A379A1880122304673
:103BF00002F0DCFEE0706868002811D0FFF70CFED0
:103C0000287800280CD06978FFF7B8FC002807D086
:103C1000E078A2880346297804F04BFD0020287044
:103C2000A0881721FDF7AAF8A088FEF7C9FCA08894
:103C3000FEF7EEFC07B0F0BD3409FF1F2072FF1F36
:103C40005072FF1FBC71FF1F70B5044600268088AC
:103C500002F0FEFE002803D00678A08802F06AFF7A
:103C6000144D2878002808D0864206D16978FFF7DD
:103C700085FC002809D000202870002E05D0A379EB
:103C8000A288A078314604F014FDA088094A81007A
:103C900008325158002901D0FFF79EFDA088172156
:103CA000FDF76CF8A088FEF78BFCA088FEF7B0FC4F
:103CB00070BD00002072FF1F70B58288294D01245D
:103CC000531B2949AA4242D019DC284D531BAA4252
:103CD00018D00BDC264BD21826D0254B1033D21827
:103CE0001ED0032A17D0042A39D10BE0012B09D0AA
:103CF000022B07D0032B21D0042B30D11AE0433BF9
:103D0000072B2CD8496800292AD00968002927D018
:103D10008847044624E08068007800F0ADF81FE092
:103D2000806800F001F9F4E78068411C007800F039
:103D3000D9F8EEE783681B78002B11D08968002939
:103D40000ED00B6808E0014610469847E1E70949A4
:103D50000968002904D04B68002BF4D100E000244E
:103D6000204670BD0E2000004C72FF1F082000008E
:103D7000F7EFFFFF2C72FF1F10B5094CA178002947
:103D80000CD001460622A01DFCF752F9A11DA07817
:103D9000FFF79EFCA01DFCF77DFA10BD002010BDB2
:103DA000BC71FF1F1CB52F49037801240A68912BB1
:103DB00002D0A22B2ED13EE04178052909D00E2950
:103DC00004D00F2908D03E2924D115E0FFF774FF55
:103DD00010E0FFF739FF3AE001468088224B0124CA
:103DE000C31801D0062B15D1002A30D05268002A02
:103DF0002DD0904704462AE081780124032917D06A
:103E000004DC012911D0022904D105E015291ED0B6
:103E100016291CD000241AE014498968002916D0FC
:103E20004968002913D0884711E0FFF79DFE0EE096
:103E3000FFF790FE0BE00E490978042909D0002A0B
:103E400005D05268002A02D001460A489047204611
:103E50001CBD00216A46118001794088FEF730FBC5
:103E6000F5E700002C72FF1FF3DFFFFF4C72FF1F0E
:103E7000BD71FF1FFFFF0000F8B5164F0646BD1FBE
:103E80002878FF2814D00A20FCF762F904000FD02C
:103E9000D020207066700820A070A878E0700622FC
:103EA0003946201DFCF7C4F821462878FCF72CF988
:103EB000E87801280DD108480068002803D0806800
:103EC000002800D080470648044A04210078FCF707
:103ED00009F9F8BDC271FF1F5072FF1F60EA0000B0
:103EE0004D72FF1F70B500240546002805D100293A
:103EF00003D006220B48FCF79BF80A4810380178DB
:103F0000012907D10124002D06D000210170284687
:103F100000F03CFA204670BD02210170FCF7C0F9A8
:103F2000F8E70000B4B0FF1F10B50024002813D03C
:103F300002780B49002A03D14288CA8202790A76A4
:103F40000A78022A08D102780124002A06D0002229
:103F50000A70007800F01AFA204610BD0322F7E735
:103F6000A4B0FF1F01494860704700004C72FF1F5A
:103F7000F0B50546817887B086A0FFF705FAA878E6
:103F8000002607278A4C0300FCF764F808053E1D4D
:103F900040406DB3E53E6878002869D185A0FFF701
:103FA000F3F983480622E91C3C30FCF741F8012074
:103FB0007F4BA071014642331F226079FDF7BAFBA7
:103FC000002855D1BDE06878002851D1E878002854
:103FD00007D07D4BA27800216079FDF7ABFB6870BC
:103FE0000FE0A07902280FD001216079FCF762F878
:103FF000002806D175A0FFF7C7F901216079FCF709
:1040000053F86878002833D107B0F0BD69780029EB
:104010002ED103280AD0A289002A11D020780028A6
:104020000FD001216079FCF733F80AE0A079052868
:1040300004D06CA0FFF7A8F9022012E0062010E0DF
:104040002670A079062802D0042802D008E00520B6
:1040500007E00120207001466079FCF725F870E048
:104060000320A0716DE06878002803D031283ED08D
:10407000A77166E04E480622291D3630FBF7D8FFAF
:104080006A89E281A9892182E88960820523A37176
:104090002B8A059046480693039204913630C178E6
:1040A000437902796F460EC7837842780178514888
:1040B000FFF76AF9A28A002A03D002216079FBF790
:1040C000E7FFA889E083E8892084288A6084E07873
:1040D00001280AD11F20FDF787F97D21C900484337
:1040E000024604216079FBF7D3FF267029E0267091
:1040F000B6E72F48062200213630FBF7B1FFE683F2
:104100002684668404216079FBF7C8FF0821607962
:10411000FBF7C4FFA879082808D00320A0712078F5
:10412000002805D06079FDF735F907E00420F5E7B0
:104130000120207001466079FBF7B6FF0020C043E4
:10414000E081606A002800D15EE701680029FBD0A9
:10415000A079884758E708216079FBF79FFF6878C6
:104160000028F7D1E888E083288920846889608462
:1041700004216079FBF79EFF0028EBD11EA0FFF71A
:1041800003F9A06A0028E5D00368628C218CE08BDB
:10419000984739E75359535F4556454E545F4D5341
:1041A00047206F70636F64653A20253032580A00EB
:1041B000106EFF1F557064617465204164766572EE
:1041C000746973696E670A003296FF1F4F70656EDF
:1041D000204164766572746973696E6720457665FF
:1041E0006E740A004164766572746973696E670A59
:1041F0000000000068AF021170476170526F6C657B
:10420000735F506172616D55706461746543420AF9
:104210000000000070B50446017825A0FFF7B4F84F
:1042200020782A4D912807D0A22827D0D02802D163
:104230002046FFF79DFE70BD60780E28FBD1A08858
:10424000234988420FD1A16803200856A97905297E
:10425000F1D17F28EFD0696A0029ECD049680029A4
:10426000E9D0884770BD1B498842FBD1A06883789C
:104270004278017818A0FFF787F870BD607913289D
:10428000FBD12089012802D12879022808D00520F5
:10429000FDF7AAF8024608216879FBF7F9FE70BD20
:1042A00008216879FBF7FAFEFDF71EF870BD0000E3
:1042B0000A5359535F4556454E545F4D5347204569
:1042C00076656E743A20253032580A00106EFF1F52
:1042D00005140000222000005B48434920444C455F
:1042E0005D25642025642025640A00007CB5154CFA
:1042F0000546E08BE18A88420AD3218B884207D8A1
:10430000208C618B884203D1608CA18B884217D0AE
:104310000520FDF769F80646E18A68460180218B91
:104320004180618B8180A18BC18062796946E0897F
:10433000FEF7D2F82571324608216079FBF7A8FE16
:104340007CBD0000106EFF1FF8B507460E460846FC
:1043500002F07EFB040018D02620FDF745F805008A
:1043600000D125780620FBF7F3FE04000DD00622CD
:104370000021FBF775FED020207067700E20A07022
:10438000A680E8B22146FBF7BFFEF8BD70B50F4D21
:1043900006462878FF2818D00E20FBF7D9FE040027
:1043A00013D0D020207066700020A070062208492B
:1043B000E01CFBF73DFE06481038C18A6181007E93
:1043C000207321462878FBF79FFE70BDBC71FF1F4C
:1043D000B4B0FF1FFFB581B01E4617460D460C2036
:1043E000FBF7B6FE040013D0284602F031FB00288C
:1043F00010D00078D0212170019961700721A1703F
:10440000A580E78026810A9961812146FBF77CFE21
:1044100005B0F0BD0048ECE7BC71FF1F70B50D4D55
:10442000044628680E46002812D00620FBF790FEAE
:10443000010009D0D02008704C70032088708E8055
:1044400028680078FBF760FE002C01D0FFF7B8F970
:1044500070BD00001C72FF1FFFB581B01F460E46E5
:10446000084602F0F5FA050022D01020FBF770FE96
:1044700004001DD010220021FBF7F2FD2620FCF7DE
:10448000B3FF002800D12878D021217001996170F4
:104490000F21A170A6800399217267720A99A172F7
:1044A0000B99E1720C99E160C0B22146FBF72CFE3A
:1044B00005B0F0BDF0B51F4D85B02868002837D095
:1044C0008778FDF70DF8002805D00A20FCF78CFF4F
:1044D00004900B200EE001F01FFE002805D00620FE
:1044E000FCF782FF0490072004E00820FCF77CFF23
:1044F00004900920FCF778FF04460F480078002854
:1045000014D001262968C878091DFFF7E1F8296849
:104510006D46CA7A8B7A091D0BC5039233463A461B
:1045200021460498FBF7C2FE05B0F0BD0026E9E77E
:104530000120F9E71C72FF1FBE71FF1F10B509496A
:10454000096800290CD0002805D101204870FBF72C
:10455000B7FD002802D00021FFF760FF012010BD49
:10456000002010BD1C72FF1FF8B50C4602F070FA57
:10457000020021D026201462FCF736FF05062D0E1E
:1045800000D115789679D01D00901020176AFBF79E
:10459000DFFD040010D0D0202070002060700920C2
:1045A000A070E6700622201D0099FBF741FD214610
:1045B0002846E760FBF7A8FDF8BD411E152903D981
:1045C000FF2801D0002070470120704770B50A4EC7
:1045D000054630780C46FF280DD00420FBF7B8FDC7
:1045E000010008D0D02008704C7002208870CD7077
:1045F0003078FBF789FD70BD3072FF1FF3B5284D91
:1046000081B0286800284AD04078264E012803D07F
:104610003078002831D041E001F07EFD224F0028A3
:1046200013D00120FCF7E0FE0446412808D91F4AB8
:1046300002213878FBF756FD1D483C3C44800EE0D3
:104640007D20C0002246424303E00020FCF7CCFE60
:104650000246002A03D002213878FBF719FD2968A9
:10466000022048703078002802D00020307015E019
:1046700002990198FFF7D2FE10E00320019CFBF79E
:1046800067FD010008D0D02008704C7004208870AD
:1046900028680078FBF738FDFFF792F80120FEBD8F
:1046A0001C72FF1FBF71FF1F4D72FF1F60EA0000E9
:1046B0003072FF1F074A00218B00D35A834202D178
:1046C000880080187047491CC9B20229F4D3002021
:1046D000704700006072FF1F10B50C46FFF7EAFF3D
:1046E00000280DD0002C00D020608078FE2803D058
:1046F000FF2803D0162010BD172010BD002010BDCC
:10470000022010BDFFB581B0FF201E4617460530C0
:104710000A9DFBF71DFD04001BD0B02020706770C0
:10472000029860802671002D06D02046FC22294682
:104730000830FBF77DFC05E02046FC220021083014
:10474000FBF78EFC21460198FBF7DEFC002005B04C
:10475000F0BD1320FBE700000548172202800988FE
:10476000172901D204207047018000207047000003
:10477000B871FF1F0020704708B50A4608884988AD
:1047800088420BD8002809D0002300931379521DCA
:10479000FDF7CEFA002803D0002008BD012008BD97
:1047A0000A2008BDF3B50D4608884988002687B061
:1047B000814215D3002813D0002769460F71009756
:1047C000002369881A46FDF7B3FA04004FD0684603
:1047D0000079002807D069464979012925D008E0E9
:1047E000012009B0F0BD217802291BD002216A46C0
:1047F00051711222504301AA618980184180684694
:1048000000791223584380181022001D6168FBF7BD
:104810000FFC68460079401C0106090E68460171CC
:104820001FD11AE001216A465171217802291ED157
:10483000820001A86189121851806A461279616864
:10484000920010180222001DFBF7F2FB6A46107955
:10485000401CC0B21071052803D261890A48814208
:1048600000D101266089401C80B2002EA7D0684686
:104870000079002805D001A90798FCF7DDF8002091
:10488000AFE70A20ADE70000FFFF000038B50C4697
:1048900008884988884215D8002813D02379621DDA
:1048A00002210B48FCF74DF800280DD000200090A5
:1048B000237961882088621DFDF73AFA002805D027
:1048C000002038BD012038BD102038BD0A2038BD79
:1048D000C8AE021108B50A460888498888420BD834
:1048E000002809D0002300931379521DFDF720FA08
:1048F000002803D0002008BD012008BD0A2008BD03
:10490000F8B500250F4606460C46E03717E068006C
:10491000205A0021FDF7E6F9002809D0017A304637
:10492000FDF77AFB002808D06900615A2180F8BDA4
:104930006800205A20800120F8BD6D1CEDB2B87DC2
:10494000A842E4D80020F8BD10B50446088800212C
:10495000FDF7C8F9002804D0017A2046FDF75CFB7A
:1049600010BD012010BD000030B585B00546694678
:10497000FCF7E0F8040026D168468078C1071E489D
:1049800009D08268002A04D06888694690470446A6
:1049900019E0062417E04268002A05D068886946B5
:1049A0009047040001D10EE00624684640780028B4
:1049B00009D16846817801730021C1810474688837
:1049C00003A9FBF7F9FFA868002801D0FBF7DEFB7D
:1049D000002C05D168468078122807D01B2803D008
:1049E00068880121FDF788FD05B030BD6846407834
:1049F0000128F5D1F8E700006872FF1F70B5054681
:104A00000C4608880021FDF76DF9002805D0017AD1
:104A100022462846FDF713FB70BD012070BD000043
:104A200001494860704700006872FF1F10B50446D6
:104A3000801C00F046FDFF20E07010BD10B500F0B6
:104A400025F8002800D0806810BD00229300CB5AC2
:104A5000834202D1900040187047521CD2B2022A01
:104A6000F4D3002070470000074A0021CB00D35A3E
:104A7000834202D1C80080187047491C0906090EFC
:104A8000F4D0002070470000846EFF1F064989683B
:104A900005E08A88824201D1886870470968002948
:104AA000F7D1002070470000746EFF1FF8B507466D
:104AB000012906D0022924D1012102F057F800284B
:104AC0001FD13846FFF7D0FF050015D000240D4E4A
:104AD0000CE0F8206968604308180188002908D0B4
:104AE000F8220021FBF7BCFA641CE4B2707884421F
:104AF000EFD30020C0432880024938461831FCF724
:104B00009BFEF8BD746EFF1FF3B5064683B00830F8
:104B10000190002000907088FFF7A6FF07002FD0BB
:104B2000002523E0F820796868430C1821880029C3
:104B300020D00198007801280FD160880090A388C8
:104B40007088A21DFDF780F80090002805D001991B
:104B500000200870049821880180F8220021204656
:104B6000FBF77EFA00206D1C2080EDB207484078EC
:104B70008542D7D30020C04338800098002802D156
:104B80007088FBF743FF009805B0F0BD746EFF1FFF
:104B9000F3B50546374C064685B00835F6220021A8
:104BA0002046FBF75DFA03A800902B7969882888D6
:104BB0006A1DFDF7BDF8074645E070882E4A4100A2
:104BC000515C2E4BC91FC9B2009300220291019281
:104BD000284B69468A89F63B3946FCF7D1FE002806
:104BE00012D126482989001F828891420CD121497F
:104BF0002846F6390A30FBF727FA002804D0217836
:104C0000788989000919488068468289698804ABD7
:104C10003846FDF7BFF807462078810009194A8811
:104C2000002A10D0002F05D06A46128A401C20703E
:104C30008A800AE002060021920DC9431219401C25
:104C40002070918006E0002F04D00D482178008864
:104C50008142B2D32078002806D070882146FBF725
:104C6000DDFE002007B0F0BD0698298801800A20EB
:104C7000F8E700006098FF1FB671FF1F786EFF1FF6
:104C8000B271FF1FF0B585B00446002069468881E7
:104C900020790E2869D00FDC082823D004DC0228F4
:104CA00013D0062818D118E025460835484F0A28A1
:104CB0001DD00C2810D138E010285BD012285ED00F
:104CC000162861D0182877D163E04348414900880D
:104CD00008806088FBF77AFE6EE003A92046FFF7A4
:104CE00057FF5AE003A9204600F076F955E02888DE
:104CF00004A9FCF7F7FF010015D06088354E42008B
:104D0000BA5C0023521ED2B20193029200966A4608
:104D1000B31C128AFCF734FE00281DD1608831468E
:104D2000FCF70CF848E0012016E0288804A9FCF7FD
:104D3000D9FF0100F7D060886B884200BA5C254E2D
:104D4000521ED2B20193029200966A46B31C128A96
:104D5000FCF716FE002803D029886A4691811CE0E2
:104D600060883146FBF7BAFF26E003A9204600F031
:104D7000D3F912E003A9204600F082F80DE003A960
:104D8000204600F039FA08E003A9204600F028F890
:104D900003E003A92046FFF7B7FE00280CD0617896
:104DA000142909D00B4922790A706A4692894A80EF
:104DB00008716088FBF700FE2046FCF77BFF074880
:104DC000C168002901D02046884705B0F0BD000029
:104DD000B671FF1F6098FF1FB071FF1F746EFF1F39
:104DE000F8B504460F460546083400896946FCF7C5
:104DF00079FF06003AD0307A80060ED568460088E2
:104E0000FFF71CFE030006D068881222314698473F
:104E1000060002D02BE00E2629E06E883046FFF710
:104E200023FE010005D11448FFF71EFE01000ED03D
:104E30000E80124A0020527807E0F8264B6846435D
:104E40009B5B002B05D0401CC0B29042F5D30926D5
:104E50000DE04968F822504308182146FBF7E8F8AE
:104E6000002668882146FBF72FFF02E001262088F4
:104E700038803046F8BD0000FFFF0000746EFF1F51
:104E8000F3B58BB000200B9E0746039004A800905A
:104E90003246337B718930894C4C0D320836FCF731
:104EA00047FF054678E00B98297A4088FDF7B4F86B
:104EB000070003D00C98698901806FE00B98444982
:104EC0004088444B4200895C0093891FC9B200228C
:104ED000029101923D4B69460A8AF63B2946FCF74E
:104EE0004FFD0700E6D10398002833D03948618888
:104EF000001F8088021D914253D1039909180B9815
:104F0000408842003248805A801F814249DC039920
:104F1000A87A6118087103986989401C80B2221828
:104F2000090A401C117180B203906846028A718898
:104F300007AB2846FCF72EFF050011D00398694601
:104F4000898B2018017103986946401C898B80B2B7
:104F5000090A0CE01F48001F8088001D6080D6E70A
:104F60000398FF21201801710398401C80B2221879
:104F70001171401C80B217490390091F8A88134998
:104F80002018F639001DFBF753F812490398091F42
:104F90008988401880B20390002D84D1039800289E
:104FA0000CD061880398FBF74BF920700B982146D1
:104FB0004088FBF79DFE00200DB0F0BD002F00D112
:104FC0000A270C98318801803846F5E76098FF1F62
:104FD000B671FF1F786EFF1FF3B50746044608370A
:104FE0008BB049480490388800252E4605906AE029
:104FF00007A800903B7979887A1D0598FCF798FE00
:105000000890002852D0408905900898017A60885D
:10501000FDF702F806005DD160883C494200895CDA
:105020003B4B091FC9B20093002202910192364BFB
:1050300069468A8BF63B0899FCF7A2FC060049D129
:10504000002D36D0049841883148001F8088801C8C
:10505000814241D12E4B1B1F98882918608842003D
:105060002A48805A001F814220DC0898817A0498DF
:105070004019017108996D1C4989E8B20A0A04991E
:1050800009180A71401CC5B2194604988A881E493D
:105090004019F639001DFAF7CBFF1D481D49001FC6
:1050A00000792818C5B20598884209D1002D13D17E
:1050B00023E017480499001F8088801C4880C9E7B6
:1050C000401C80B20590608841001048405A001F83
:1050D000A8428DDA002D0ED0049841882846FBF7AF
:1050E000AFF801460498017060880499FBF70EFE42
:1050F00000200DB0F0BD002E00D10A260C990598B5
:1051000008803046F5E700006098FF1FB671FF1F6A
:10511000786EFF1FFFFF0000F3B50646044600202F
:1051200085B0324D00900836288007463046E03082
:10513000049048E07800305A03A9FCF7D3FD010041
:105140001AD060882B4B844642002948805C00932B
:10515000401EC0B2002202900192244B6846828910
:10516000F63B6046FCF70CFC0090002807D0780066
:10517000315A0698018035E001200090F7E71D497B
:105180002888091F8988421861884B001849C95A24
:105190004B1E9A4204DD081A1649091F401E8880DA
:1051A0002988A81C08181349091F8A880F49F6394D
:1051B000FAF73EFF0F482988001F808808182880CA
:1051C0007F1C0498FFB2807DB84207D96088298887
:1051D00042000748805A401E8142ABDB6088294666
:1051E000FBF7A2FD009807B0F0BD00006098FF1F1C
:1051F000B671FF1F786EFF1FF3B5054683B00446F6
:105200000835008901A9FCF76DFD2746E8370646F9
:10521000002822D0307A80060ED568468088FFF7B5
:105220000DFC030006D06088122231469847060024
:1052300002D013E00E2611E0002000906B88298830
:1052400060882A1DFCF700FD060007D1787E002843
:1052500007D16088FBF79EFD03E0012604982988AA
:105260000180787E002802D0002005B0F0BD3046D5
:10527000FBE70000F8B504460246F820424319480F
:1052800000250746457010377868002807D00020B1
:10529000C100C919401C00064D60000EF8D0124E26
:1052A00000213046FAF7DCFE002001466143C9B216
:1052B000F82251438B190B49C200103152180021BA
:1052C000536005E0F8274F435368491CDD53C9B2CA
:1052D000A142F7D3401C0006000EE6D001484470FE
:1052E0000020F8BD746EFF1F7296FF1F7CB50C780E
:1052F000069D022C0FD14C6826786478240234195C
:10530000064EA4B2F44206D10224DBB20095019409
:10531000FCF7AAFA7CBD01207CBD0000FED6FFFF91
:10532000F8B505461D48854223D0461C002921D0EA
:1053300001292BD002291CD10121284601F016FC9D
:10534000002816D12846FFF7B5F9040011D0A0783F
:10535000FF280ED0FE2807D000200090E0781E2302
:1053600014222946FFF7CEF92046FFF75FFBFF2006
:10537000A070F8BD2846FFF79DF90028F9D1304606
:10538000FFF798F90028F4D00580F8BD2846FFF70C
:1053900091F90400F9D02680D9E70000FEFF000053
:1053A00038B5040010D0A078FF280DD0FE280BD00F
:1053B000002000902188E0781E231722FFF7A2F931
:1053C000FE20A070FF20E07038BD0000F3B50C4651
:1053D0008978C1B01E2914D02E4D2878FF2829D0F5
:1053E000182927D84808C2002B481218803A976F0E
:1053F000002F1FD0D06F00281CD02078002817D194
:1054000013E04198FFF756F905000BD000200090FB
:10541000A378E87800224199FFF774F906462846F8
:10542000FFF704FB304643B0F0BD6278012A03D198
:10543000122901D00620F6E702AE0096A388617813
:10544000A268B8470028EED1A0784008C1001248F1
:1054500008188038C26F02A94198904700280FD0E1
:1054600061780029DFD1A27869460A700871684620
:105470000189418069464198FBF79EFA0020D2E7F6
:10548000A378042BCFD00096002228784199FFF70B
:1054900039F9C8E75872FF1F64AE021100B5034620
:1054A000FCF7AAFD002803D0C018401E80B200BD42
:1054B000184600BD10B57D24E4006243FAF7FCFEF7
:1054C00010BD10B5040008D02078FF2805D0FE28B4
:1054D00003D0FAF7F7FEFF20207010BDF7B506469F
:1054E0000F461020FAF7F8FD05461020FAF7F4FDF4
:1054F0000446002D3AD0002C2DD010220021FAF7BE
:10550000AFFD2A462146304603F05EF9060023D15E
:105510002878000604D43946284601F038FA08E015
:105520002146284601F033FA3A461149204604F054
:1055300077FE3878000604D43846029901F027FA3D
:105540000AE02146384601F022FA09492046029A2B
:1055500004F066FE00E013262846FAF7CFFD002C83
:1055600002D02046FAF7CAFD3046FEBD1326F6E704
:10557000EEAE0211F0B5154D91B00C460601A859DA
:10558000694604F0A5FB751904A9686804F0A0FB3E
:1055900008A9A86804F09CFB0CA9E86804F098FB33
:1055A00000206B4604AD08AF820001019E58665092
:1055B0000919AE584E60BE588E600CAEB258401CF1
:1055C000CA600428F0DB11B0F0BD0000B8A9FF1FCD
:1055D000F02108400011704710B50446FFF7F8FFAE
:1055E000034A800121078018890E405810BD000031
:1055F00074A50211FEB51E4B6028DC7C1D7D019553
:105600005F7D9D7D00950AD062280CD01D462E7DC1
:10561000ED7CAD1964280CD0662810D016E000206F
:105620000860D87C11E00F20000260430860187DFC
:105630000BE00F20000245430D60587D05E0E8199E
:105640000F252D0268430860987D1080214609A02F
:10565000FDF79AFE0AA00199FDF796FE39460BA0C8
:10566000FDF792FE0CA00099FDF78EFEFEBD000036
:10567000039AFF1F4B3A202530386C580D0A000062
:10568000433A202530386C580D0A00004D3A202549
:1056900030386C580D0A0000593A202530386C58C3
:1056A0000D0A000070B50D46064628431CD0172190
:1056B000104802F0ADFC10A0FDF766FE0D4C0A216B
:1056C000601C01F099FB002E08D00A22611C3046B4
:1056D000FAF7AEFC0A21601C01F08EFB002D01D010
:1056E00020782870002070BD09A0FDF74DFE022033
:1056F00070BD0000039AFF1F5265616420466C6113
:1057000073682056657273696F6E3A20000000005E
:105710006765745F66696C655F696E666F20657248
:10572000720A000010B50348017A034802F0F6FB44
:1057300010BD00002470FF1F2C9AFF1FF8B50698BB
:1057400000271D4614460E46002801D00B20F8BD48
:1057500030780021022801D019804DE0706802786D
:10576000407800021018152280B25202801A0300FD
:10577000FAF770FC0504121F1A254100F068FAF7C9
:10578000E1FCC2B20798824200D902462A80F16841
:105790002046FAF74DFC30E0F068022100882980AD
:1057A0002070000A607028E0062028800246F16818
:1057B000EEE701202880F068007820701DE0F06896
:1057C000002816D008212980017821700188090A53
:1057D00061708178A1704188090AE17001792171B5
:1057E0008188090A61718179A171C088000AE0711C
:1057F00003E0298001E0298001273846F8BD10B573
:105800000B78840702D50224234301E0FD242340C2
:105810000B7003070B7802D50824234301E0F7241B
:1058200023400B7083060B7802D52024234301E02C
:10583000DF2423400B700A21084201D1810603D5E1
:1058400010780C21084304E0002803D11078F321DC
:105850000840107010BD0000FFB581B0087800242A
:105860000A9E1F460D4602280FD1686801784078CD
:1058700000020818152180B24902401A09D00128F7
:1058800029D0022848D003283CD00124204605B066
:10589000F0BDE868FAF756FCC0B2864205D8F019A8
:1058A0000090112803D90D24F0E70724EEE7E868FB
:1058B0003A4680190399FAF7BBFB0098EA6880B270
:1058C000002111541C4840680028DFD001680029DD
:1058D000DCD0002012E0002E12D1022BE3D103997C
:1058E000E8680A784978090251180180124840682E
:1058F0000028CBD001680029C8D001208847C5E71F
:105900000B24C3E7002EFBD1062BCCD10622E8687E
:105910000399FAF78DFBB9E7002EF1D1012BC2D123
:1059200003980078002803D0012801D08024ADE737
:10593000E9680870AAE700008C6DFF1F10B50448E5
:10594000C16B034A40321068D06000F03DFA10BDD0
:105950000080004030B5C21F0A2A01D3062030BDA6
:105960000124074D9440002905D0002100F0C0F823
:105970002868204301E02868A0432860002030BD4B
:1059800000380040054B01228240D868002901D030
:10599000104300E09043D86070470000003800409A
:1059A00070B5FF2814D08207D30E8408094A5E1D03
:1059B000A400A518AC69F21A0126521C9640761E66
:1059C0009E40B44399400C43AC610121FFF7DAFFDC
:1059D00070BD00000038004010B5114C2078002840
:1059E00001D0072010BDFF212D310D48FAF770FCC2
:1059F000012020700B490020086348630A490862AF
:105A0000486202211020FDF751FA1020FDF742FAFA
:105A1000064A07490D20FAF761FC002010BD00007E
:105A2000F893FF1F0080004080F00040415C0211AD
:105A3000B55B021110B5172801D3052010BD0C4B22
:105A40009C6B01228240104620439863586B904320
:105A50005863DC6B012907D020469043D863186B4C
:105A600002431A63002010BD10462043F6E70000F1
:105A700000800040054B0122801E824058690029A9
:105A800001D0104300E09043586170470038004057
:105A900070B5044614480E460519002902D16878ED
:105AA000012808D000212046FFF76CFF022C04D00B
:105AB000032C02D005E0072070BD01212046FFF72E
:105AC000D9FF00212046FFF745FF08490120A040EB
:105AD0004A68012E05D082434A6002206870002087
